:020000040000FA
:0400000057EF00F0C6
:1000080003829EA20AEF00F00CEF00F055EF00F01B
:100018009E9227EF00F0640E01180210D8A417EF83
:1000280000F019EF00F021EF00F0000E026E000E54
:10003800016EBE04BE6E27EF00F0010E0124016EB2
:10004800000E0220026E020EBE602DEF00F02FEFB0
:1000580000F00FEF00F0010EBE6E4BEF00F0640EE3
:1000680001180210D8A43BEF00F03DEF00F045EF77
:1000780000F0000E026E000E016EBE28BE6E4BEF41
:1000880000F0010E0124016E000E0220026EF80E2F
:10009800BE6451EF00F053EF00F033EF00F0F90EBB
:1000A800BE6E039211006EEF00F08AEC00F075EC62
:1000B80000F087EC00F064EC00F082EC00F0120035
:1000C8009E929D829F82000ECC6E060ECA6EF90E1D
:1000D800CB6E1200026A016A0390039200017CEF62
:1000E80000F0000E946E000E8B6E8B9894981200A0
:1000F80059EC00F07EEF00F057EF00F00F0EBD6EE8
:10010800F90EBE6E1200F28EF28C1200520ED36EF1
:020118001200D3
:020000040020DA
:08000000FFFFFFFFFFFFFFFF00
:020000040030CA
:0E000000FF091A1FFF8985FF0FC00FE00F4098
:00000001FF
