:020000040000FA
:0400000069EF00F0B4
:020004000000FA
:040008004CEF00F0C9
:04000C00F292F288F2
:08001000F19EF19C12001200A8
:0400180050EF00F0B5
:04001C00F294000E4C
:10002000D56EF29A12009E929D829F82060ECA6E33
:10003000F90ECB6E12009E92662F0BD0010E666FEA
:10004000672F0ED07B0E666F7A0E676FF70EBE6E4F
:100050001200682F03D0030E686F1200BE06F9D796
:0E006000682F03D0030E686F1200BE2AF9D776
:02006E007B0E07
:10007000666F7A0E676F030E686F5C0ED36E0F0E9D
:10008000BD6EF70EBE6E826A8B6A000E946EF28CA5
:08009000F28E13EC00F01200E7
:080098009EB21BEC00F0110008
:1000A000636FD8CF64F0E0CF65F065C0E0FF6351C7
:0800B00064C0D8FF100012002B
:0800B8003F0E696F9D0E6A6F97
:1000C000692F64EF00F06A2F60EF00F068EF00F036
:0200D00012001C
:0800D20037EC00F0FFD7FFD767
:020000040030CA
:0100010009F5
:0100020019E4
:0100030000FC
:010005008971
:010006008079
:010008000FE8
:01000900C036
:01000A000FE6
:01000B00E014
:01000C000FE4
:01000D0040B2
:0200000400F00A
:040000004D434850D4
:00000001FF
